:020000040800F2
:10280000001000203D2A0008B17C0008412A000881
:10281000C37C0008C77C0008CB7C000800000000D7
:10282000000000000000000000000000D17C000853
:10283000CF7C000800000000A75800089759000846
:10284000D77C0008D97C0008DB7C0008DD7C000810
:10285000097D00080B7D00080D7D00080F7D000834
:10286000117D0008137D0008157D0008177D000804
:10287000197D00081B7D00081D7D00081F7D0008D4
:10288000217D0008237D0008257D0008277D0008A4
:10289000297D0008A32A0008A32A00082F7D00082C
:1028A000317D0008337D0008357D0008377D000844
:1028B000397D00083B7D00083D7D00083F7D000814
:1028C000417D0008437D0008457D0008477D0008E4
:1028D000497D00084B7D0008537D0008AD7E00084F
:1028E000B57E0008B77E0008B97E0008BB7E0008F0
:1028F000BD7E0008BF7E0008C17E0008C37E0008C0
:10290000C57E0008C77E0008C97E0008CB7E00088F
:10291000CD7E0008137F0008157F0008177F000890
:10292000197F00081B7F00081D7F00081F7F00081B
:1029300000F002F800F062F80AA090E8000C82446F
:102940008344AAF10107DA4501D100F057F8AFF24C
:10295000090EBAE80F0013F0010F18BFFB1A43F07D
:1029600001031847D0480100F04801000A444FF025
:10297000000C10F8013B13F0070408BF10F8014BDE
:102980001D1108BF10F8015B641E05D010F8016B23
:10299000641E01F8016BF9D113F0080F1EBF10F887
:1029A000014BAD1C0C1B09D16D1E58BF01F801CBAA
:1029B000FAD505E014F8016B01F8016B6D1EF9D52D
:1029C0009142D6D370470000002300240025002642
:1029D000103A28BF78C1FBD8520728BF30C148BF82
:1029E0000B607047642913F09B85782913F0D48518
:1029F000002070471FB51FBD10B510BD13F089FF33
:102A00001146FFF7F7FF03F0F5FC13F0A7FF03B43F
:102A1000FFF7F2FF03BC13F0ABFF0000EFF30980F8
:102A2000704780F309887047EFF30880704780F3A0
:102A30000888704740BA7047C0BA70471C480047C2
:102A40001C491D4A1D4B11F8010B28B1146814F0E4
:102A5000800FFBD01870F6E71EF0040F0CBFEFF3E9
:102A60000880EFF309801649884245F02281154914
:102A700009684FF09202914245F01B8112490968A2
:102A8000124A914245F0158111490B4A0B4B11F83E
:102A9000010B28B1146814F0800FFBD01870F6E712
:102AA000FEE7FEE70B480C490A4A0C4B7047000052
:102AB00031290008547201080038014004380140EF
:102AC000E0FFFF1F29ED00E038ED00E0FCFFFF1FF5
:102AD0005B72010828D300200010002000000020B5
:102AE00010B54FF4001401214FF0C05006F06BF9FF
:102AF000012005F092FF05F097FA012006F0C3F8D7
:102B000000BF412006F027F810B9601E0400F8D17C
:102B10008CB14FF4807006F0D2F8012006F0D5F8A1
:102B200006F00DFA06F002FA47F6FF7006F0D8F943
:102B300006F0FCF91FE04FF40014601105F0E8FF07
:102B400000BF312006F007F810B9601E0400F8D16C
:102B500004B910BD4FF4407006F0B1F8012006F042
:102B6000B4F806F0ECF906F0E1F94FF2234006F074
:102B7000B7F906F0DBF900BFEBE72DE9F0410446B9
:102B80000F464FF000082088A0F5EF65872D03D889
:102B90002088B0F5EF6F02DA0020BDE8F08125B1A2
:102BA000681E012101EB900600E0002605F00300FD
:102BB00008B9012000E00020804640F26D1000FBC3
:102BC0000560F84900FB01F5A078012802DBA07838
:102BD0000C2801DD0020E0E7B8F1000F16D0A07846
:102BE000F14951F82010401EEF4A52F82000081A0F
:102BF000EC4990FBF1F0E178884201DA0020CCE763
:102C0000A078401EE84951F8206015E0A078E74917
:102C100051F82010401EE54A52F82000081AE149F8
:102C200090FBF1F0E178884201DA0020B5E7A07866
:102C3000401EDE4951F820602079172801DD002070
:102C4000ABE760793B2801DD0020A6E7A0793B28AF
:102C500001DD0020A1E7E078401E40F2A3214843B7
:102C600006EBC010054420794FF461614843617957
:102C7000C1EB011100EB8100A17908440544012F4B
:102C800002D0022F10D107E006F050F9284606F0D6
:102C90001AF906F04BF907E006F048F9284606F065
:102CA0002DF906F043F900BF00BF012075E70EB50E
:102CB00003208DF808000B208DF8090000208DF806
:102CC0000A0001208DF80B0002A805F044F9042049
:102CD00005F0DFF94AF2A55188421BD0FFF700FF4B
:102CE00040F2E170ADF8000001208DF802008DF88F
:102CF000030000208DF804008DF805008DF8060013
:102D000001216846FFF739FF4AF2A551042005F07A
:102D1000B4F912E07B2005F01EFF10B97A2005F00F
:102D20001AFF01214FF0C05006F04DF8012005F0C8
:102D300074FE06F004F906F0F9F806F075F80EBD19
:102D400070B502460B469A4CB3FBF4F504FB153103
:102D5000984CA14208D2964CB3FBF4F44FF4EF65C3
:102D600005EB8404148022E0934CA14209D2904CDC
:102D7000B3FBF4F44FF4EF6505EB8404641C14809A
:102D800015E08E4CA14209D2894CB3FBF4F44FF408
:102D9000EF6505EB8404A41C148008E0844CB3FBAD
:102DA000F4F44FF4EF6505EB8404E41C1480814CCB
:102DB000A14211D201200CE07B4C54F820408C42FF
:102DC00006D99070441E784D55F82440091B02E046
:102DD000401C0D28F0D341E0774CA14213D2754C32
:102DE000091B01200CE0714C54F820408C4206D99C
:102DF0009070441E6D4D55F82440091B02E0401CA4
:102E00000D28F0D32AE06D4CA14213D26A4C091B65
:102E100001200CE0654C54F820408C4206D990709B
:102E2000441E624D55F82440091B02E0401C0D2849
:102E3000F0D313E0614C091B01200CE05B4C54F80B
:102E400020408C4206D99070441E584D55F82440BD
:102E5000091B02E0401C0D28F0D300BF514CB3FB0E
:102E6000F4F40725B4FBF5F605FB1644D4714D4C7C
:102E7000B1FBF4F4641CD4704A4CB1FBF4F504FBD0
:102E800015114FF46164B1FBF4F414714FF46164F3
:102E9000B1FBF4F504FB15113C24B1FBF4F45471BF
:102EA0003C24B1FBF4F504FB1514947170BD70B5AE
:102EB00002460B463E4CB3FBF4F504FB15313D4C8A
:102EC000A14208D23A4CB3FBF4F44FF4EF6505EBA2
:102ED0008404148022E0384CA14209D2344CB3FB64
:102EE000F4F44FF4EF6505EB8404641C148015E0E2
:102EF000324CA14209D22E4CB3FBF4F44FF4EF65EF
:102F000005EB8404A41C148008E0294CB3FBF4F402
:102F10004FF4EF6505EB8404E41C1480254CA142BA
:102F200011D201200CE0204C54F820408C4206D9EC
:102F30009070441E1C4D55F82440091B02E0401CB3
:102F40000D28F0D350E01C4CA14213D2194C091BA0
:102F500001200CE0154C54F820408C4206D99070AA
:102F6000441E124D55F82440091B02E0401C0D2858
:102F7000F0D339E0114CA14222D20F4C091B0120A1
:102F80000CE00A4C54F820408C4206D99070441E44
:102F9000064D55F82440091B02E0401C0D28F0D3D3
:102FA00022E00000805101004C6F0108806F010891
:102FB000801F86070085E20180B8C30300ECA405EA
:102FC000CF4C091B01200CE0CE4C54F820408C4221
:102FD00006D99070441ECB4D55F82440091B02E0E1
:102FE000401C0D28F0D300BFC74CB3FBF4F40725F9
:102FF000B4FBF5F605FB1644D471C34CB1FBF4F4F5
:10300000641CD470C04CB1FBF4F504FB15114FF4F3
:103010006164B1FBF4F414714FF46164B1FBF4F535
:1030200004FB15113C24B1FBF4F454713C24B1FBB6
:10303000F4F504FB1514947170BD2DE9F0410646BA
:1030400005F074FF05F036FF074605F06FFFAF4847
:10305000B7FBF0F100FB1175AD48854208D2AB48D3
:10306000B7FBF0F04FF4EF6101EB8000308022E01D
:10307000A848854209D2A548B7FBF0F04FF4EF61AC
:1030800001EB8000401C308015E09D48854209D24C
:103090009E48B7FBF0F04FF4EF6101EB8000801C1D
:1030A000308008E09948B7FBF0F04FF4EF6101EB96
:1030B0008000C01C30809648854211D201240CE06B
:1030C000954850F82400A84206D9B470601E924971
:1030D00051F820002D1A02E0641C0D2CF0D341E0C1
:1030E0008C48854213D28A482D1A01240CE0854869
:1030F00050F82400A84206D9B470601E814951F8E6
:1031000020002D1A02E0641C0D2CF0D32AE07C482C
:10311000854213D27F482D1A01240CE0794850F8DB
:103120002400A84206D9B470601E764951F82000E8
:103130002D1A02E0641C0D2CF0D313E070482D1AF8
:1031400001240CE06F4850F82400A84206D9B4705E
:10315000601E6C4951F820002D1A02E0641C0D2CF1
:10316000F0D300BF6848B7FBF0F00721B0FBF1F2E5
:1031700001FB1200F0716448B5FBF0F0401CF070E8
:103180006148B5FBF0F100FB11554FF46160B5FBF0
:10319000F0F030714FF46160B5FBF0F100FB1155B8
:1031A0003C20B5FBF0F070713C20B5FBF0F100FB6A
:1031B0001150B0713846BDE8F08130B50146CC17EA
:1031C00001EB14642012C41700EB14742411A0EB5B
:1031D0000414CD1701EB15552D1305EB850504EBF4
:1031E00045044E4D2C80CC1701EB14742411A1EB37
:1031F0000414CD1701EB15652D12A1EB0523DD1786
:1032000003EB15752D1105EB850504EB4504444DC5
:103210002C804248008800EBC00202EB00102A46D6
:10322000128802EB80003F4A10801046008830BDB3
:103230002DE9F04707460C4615461E46DDE908898C
:103240003846FFF7BAFF00F5FA6037490880204694
:10325000FFF7B3FF344988702846FFF7AEFF3249C5
:10326000C8703046FFF7A9FF2F4908714046FFF7A5
:10327000A4FF2D4948714846FFF79FFF2A498871EE
:1032800001212948FFF779FCBDE8F0870146642059
:1032900091FBF0F00A2290FBF2F302FB13024FF4D1
:1032A0007A7091FBF0F002EB0010204A10800A20A7
:1032B00091FBF0F200FB1212642091FBF0F300FB93
:1032C00013100A2390FBF3F002EB0010184A108051
:1032D00010460088592808DD1046008860381080A4
:1032E00012480088401C114A108010480078104A8B
:1032F000128802EB00200F4A1080104600887047A9
:1033000000ECA405806F010880510100801F860732
:103310000085E20180B8C3034C6F01081010002043
:10332000121000200E100020001000200A100020B3
:103330000C1000200810002010B586B004460121B2
:10334000052005F033FD0121880305F02FFD4FF422
:103350000070ADF8140018208DF8170003208DF8C8
:10336000160005A9BC4805F0FFF94FF48060ADF8E0
:10337000140004208DF8170005A9B74805F0F4F9EA
:1033800001940020ADF80800ADF80A00ADF80C007B
:10339000ADF810000C20ADF80E0001A9AF4805F003
:1033A000D6FF25208DF8000006208DF801000020B2
:1033B0008DF8020001208DF80300684604F0CBFD73
:1033C0000121A64806F04FF806B010BD00B587B041
:1033D0000121042005F0EAFC0121480405F0F3FC7A
:1033E0000121084605F0E2FC0420ADF81800032096
:1033F0008DF81A0018208DF81B0006A9964805F0D4
:10340000B3F90820ADF8180004208DF81B0006A9B8
:10341000914805F0A9F94FF4E13002900020ADF891
:103420000C00ADF80E00ADF81000ADF814000C2043
:10343000ADF8120002A98A4805F089FF01218848E9
:1034400006F011F8012240F22551854806F017F8E0
:103450008021834806F0EFF826208DF8040008202C
:103460008DF8050000208DF8060001208DF807007A
:1034700001A804F070FD07B000BD704700B587B02B
:103480000121092005F092FC0121880405F09BFC34
:103490004FF48060ADF8180018208DF81B00032051
:1034A0008DF81A0006A96F4805F05EF94FF4006028
:1034B000ADF8180004208DF81B0006A9694805F036
:1034C00053F90220ADF8180010208DF81B0006A952
:1034D000644805F049F90221624805F0F2F94FF419
:1034E000E13002900020ADF80C00ADF80E00ADF810
:1034F0001000ADF814000C20ADF8120002A95A48D3
:1035000005F025FF27208DF8040007208DF8050021
:1035100000208DF8060001208DF8070001A804F0B6
:103520001AFD0121504805F09EFF07B000BD00B50F
:1035300087B00121112005F039FC0121C80405F0F4
:1035400042FC4FF48060ADF8180018208DF81B0085
:1035500003208DF81A0006A9444805F005F94FF438
:103560000060ADF8180004208DF81B0006A93F4844
:1035700005F0FAF84FF4165002900020ADF80C0058
:10358000ADF80E00ADF81000ADF814000C20ADF849
:10359000120002A9364805F0DAFE34208DF8040046
:1035A00009208DF8050000208DF8060001208DF817
:1035B000070001A804F0CFFC01212D4805F053FFBE
:1035C00007B000BD00B587B00121312005F0EEFB4A
:1035D0000121080505F0F7FB4FF48050ADF8180005
:1035E00018208DF81B0003208DF81A0006A91F482B
:1035F00005F0BAF80420ADF818008DF81B0006A9F4
:103600001C4805F0B1F84FF4964002900020ADF848
:103610000C00ADF80E00ADF81000ADF814000C2051
:10362000ADF8120002A9144805F091FE35208DF87E
:1036300004000A208DF8050000208DF80600012006
:103640008DF8070001A804F086FC01210A4805F066
:103650000AFF07B000BD000000080140003801402B
:1036600000440040000C01400048004000100140B0
:10367000004C0040001401400050004010B50246CC
:10368000002022F001024FF6FE74214008E013886A
:10369000921C8C1EA1B24FF6FF74A34200D00120F1
:1036A0000029F4D110BD30B503460025022A02DB03
:1036B00002F0010008B1072030BD0AE01C880C8030
:1036C0009B1C891C901E82B24FF6FF70844200D072
:1036D0000125002AF2D10DB10020EDE70420EBE72F
:1036E0002DE9F05F06460D461446AA46A0464FF067
:1036F000000B022C02DB04F0010010B10720BDE832
:10370000F09F0BE037882F80B61CAD1CA01E84B242
:103710004FF6FF70874201D04FF0010B002CF1D122
:10372000BBF1000F11D0A8F1010082B25146002078
:1037300006F04DFE81460AEB080010F8011C4945D1
:1037400001D10020DBE70320D9E70420D7E770B5DB
:1037500006460D461446022C02DB04F0010008B1B7
:10376000072070BD04F0E1FC0DE02988304604F02C
:1037700024FE042803D004F0E4FC0220F1E7B61C88
:10378000AD1CA01E84B2002CEFD104F0DAFC0020A6
:10379000E7E72DE9F04106460D461446022C02DB10
:1037A00004F0010010B10720BDE8F081601E82B274
:1037B0002946002006F00BFE0746281900F8017C78
:1037C00004F0B3FC0DE02988304604F0F6FD04282F
:1037D00003D004F0B6FC0220E6E7B61CAD1CA01E28
:1037E00084B2002CEFD104F0ACFC0020DCE770B513
:1037F0000446C4F30A0008B1012070BD04F095FC32
:10380000204604F0D7FC042801D1002000E002206B
:10381000054604F096FC2846EFE72DE9F0470746F9
:1038200000264FF0E020D0F8149007EBC70800F016
:10383000D8FA4FF0E020856911E04FF0E02084696C
:10384000AC420CD0AC4202D2281B064403E0A9EBE8
:103850000400284406442546464500D300E0ECE732
:1038600000BF00F003FBBDE8F08770B505460C46CD
:1038700045F2555005F02CFF284605F02CFF204658
:1038800005F02CFF05F02DFF05F030FF70BD10B5E1
:1038900005F027FF10BD000070B50546002405E0C7
:1038A000601CC4B2C82C01DD002070BD02212F486D
:1038B00005F0D3FC0028F3D029462C4805F07AFC0B
:1038C000002405E0601CC4B2C82C01DD0020ECE738
:1038D0000121264805F0C1FC0028F3D0234805F05B
:1038E0006BFCC0B2E1E708B5012141F2040005F02C
:1038F0005DFAE020ADF8000018208DF803000320E9
:103900008DF8020069461A4804F02EFFE02118489D
:1039100004F0D7FF0020174908804FF482704880D8
:10392000002088800220C880012008814002488150
:10393000382088810020C881072008820B4805F0C4
:1039400063FB0121094805F004FCFF20FFF7A4FFF9
:1039500008BD10B50446074884810146034805F0B8
:1039600053FB0121014805F0F4FB10BD003001407C
:10397000000801402012002008B50121042005F0B4
:1039800015FA1020ADF800008DF8030003208DF823
:10399000020069469D4804F0E7FE10219B4804F0B0
:1039A00090FFFFF7A0FF3020FFF7D3FF08BD10B551
:1039B00000240020964908600520FFF76DFFFF20D6
:1039C000FFF76AFF044601209249C1F890012046A2
:1039D00010BD10B5044600208D4908600120FFF796
:1039E0005BFF2046FFF758FF01208A49C1F890018C
:1039F00010BD10B50020864908600620FFF74CFF77
:103A000001208449C1F8900110BD10B50020804903
:103A100008600420FFF740FF01207E49C1F89001B3
:103A200010BD2DE9F04106460C46174600207849A6
:103A300008600320FFF730FFC4F30740FFF72CFFB7
:103A4000C4F30720FFF728FFE0B2FFF725FF0025AA
:103A500005E0FF20FFF720FF7055681C85B2BD42CE
:103A6000F7DB01206A490860BDE8F08110B500BFAE
:103A7000FFF79DFF00F001000028F9D110BD2DE9EE
:103A8000F04106460C461746FFF7B3FF0020604999
:103A900008600220FFF700FFC4F30740FFF7FCFEB9
:103AA000C4F30720FFF7F8FEE0B2FFF7F5FE0025AC
:103AB00004E0705DFFF7F0FE681C85B2BD42F8DBE4
:103AC000012053490860FFF7D1FFBDE8F0812DE9DF
:103AD000F04107460E461446F0B2C0F58075AC4280
:103AE00000DC254612E02A4631463846FFF7C7FF7C
:103AF000AC4200D10BE02F442E44601B84B2B4F5DD
:103B0000807F02DD4FF4807500E02546EBE700BFC3
:103B1000BDE8F08110B504462403FFF76AFFFFF704
:103B2000A5FF00203A4908602020FFF7B5FEC4F346
:103B30000740FFF7B1FEC4F30720FFF7ADFEE0B288
:103B4000FFF7AAFE01203349C1F89001FFF78EFF6D
:103B500010BD2DE9F04707460E4614464FEA1638C9
:103B6000C6F30B09C9F58055AC4200DC254619E0C7
:103B70004046FFF7CFFF2A4631463846FFF7A7FFFA
:103B8000AC4200D10FE008F101084FF000092F44CA
:103B90002E44601B84B2B4F5805F02DD4FF4805583
:103BA00000E02546E4E700BFBDE8F08710B5FFF769
:103BB00020FFFFF75BFF002015490860C720FFF7D3
:103BC0006BFE01201349C1F89001FFF74FFF10BDB4
:103BD00010B500200E490860B920FFF75DFE0120F6
:103BE0000C49C1F890010320FFF717FE10BD10B576
:103BF000002007490860AB20FFF74EFE0120054971
:103C0000C1F890010320FFF708FE10BD0008014035
:103C10009001214200002142002400BF01F022FE59
:103C20000446FE480068401CFC490860204601F03C
:103C30001DFEF3E710B51F23F94A0021AFF227005C
:103C400001F04AF810BD04E0002200F8012B4A1EE2
:103C500091B20029F8DC704730B54FF44871F14853
:103C6000FFF7F1FFEF4B03F11005002406E0002001
:103C700018705D6010331035601C84B2312CF6DB97
:103C8000002018705860E748E749086030BD30B53B
:103C90004FF4CB61E548FFF7D6FF8021E448FFF7FA
:103CA000D2FFE24B03F13805002406E05D600020FE
:103CB000586338333835601CC4B21C2CF6D300204E
:103CC00058605863DB490860D848DB49086030BD5C
:103CD0000022DA4B1A70DA49002004E0002201F8D1
:103CE000012B421CD0B20428F8DB0022D54B1A70FD
:103CF000D54B1A70D54B1A60D54B1A60704700200F
:103D0000D4490860D4490870D4490870D44908706F
:103D1000D4490870D4490860C0490860704710B59C
:103D2000FFF7EDFFFFF7D4FFFFF7B1FFFFF794FFB9
:103D300002F00EFBFFF77EFF10BDCA480078012895
:103D400008D1C5480078FF2804D2C3480078401C39
:103D5000C14908707047C549B84A1278885CB849AB
:103D6000095CC24A515C01EBC001B74A117070474F
:103D700010B50024BB480078012831D101F072FD54
:103D80000446B5480078002804DDB3480078401E9A
:103D9000B1490870B0480078F8B9B0480078E0B987
:103DA000FFF7D9FFA248A849097850F82100A74990
:103DB0000860A5480078A349097888420DD0A34837
:103DC0000068006A401CA14909680862A6480068AA
:103DD000401CA549086001F061FD204601F046FD48
:103DE00010BD10B500249F480078012811D101F0C2
:103DF00039FD04469848007840B998480078FF2873
:103E000004D296480078401C94490870204601F07E
:103E10002DFD10BD10B5002401F024FD04468E4890
:103E20000078F8B98D480078E0B9FFF794FF804832
:103E30008549097850F82100844908608248007853
:103E40008049097888420DD080480068006A401C8B
:103E50007E490968086284480068401C82490860FD
:103E600001F017FD204601F001FD10BD10B5002442
:103E70007C480078012822D101F0F4FC0446774800
:103E80000078002818DD75480078401E73490870D6
:103E90000846007860B97048007828B9204601F0DB
:103EA000E5FCFFF7B7FF0AE0204601F0DFFC06E083
:103EB000204601F0DBFC02E0204601F0D7FC10BDFB
:103EC00010B56848007890B9FFF745FF5E48007864
:103ED0005C49087056485C49097850F821005B49F4
:103EE0000860084600685A49086001F0C2FC10BD2D
:103EF00070B5002601F0B6FC064656480068401C26
:103F000054490860304601F0B1FC56480078012859
:103F10004BD15748007820B1012804D0022809D19C
:103F200003E001250BE0002509E0012501205049AF
:103F3000087004E0012500204D49087000BF00BF53
:103F400005B970BD3B4804682CE001F08BFC0646C7
:103F5000A08A18B3A08A401E80B2A082F0B9A07DCA
:103F600000F0370030B1A07D20F03700A0750120AF
:103F7000E07501E00020E075A07D00F0080068B960
:103F8000207F2E49097808432C490870A07E2C49CF
:103F9000085CE17E0843A17E294A5054646830469B
:103FA00001F064FC207E1F28CFD100BFC9E74FF489
:103FB0008F707047704710B5827E01F10B039B5CD8
:103FC000C47EA34301F10B04A35423469B5C1BB99D
:103FD0008B7A047FA3438B7210BD2DE9F04F054609
:103FE0000F4690469946A87A20490E5C05F10B00D1
:103FF000805D11F800B00BEBC60000F0FF0A0C4822
:1040000050F82A400020A0822761A07D20EA080005
:10401000A07584F81790A07D2CE0000028100020E7
:10402000501700203412002018100020D417002050
:1040300054170020381000203010002020100020DD
:10404000211000201E1000201F100020341000201E
:104050002C100020441000201C1000201D100020F7
:10406000261000202510002014100020B46F010835
:104070003C10002000F0080058B9207F6F490978F3
:1040800008436E4908706E48805DE17E08436C49C4
:10409000885529462046FFF78EFF5046BDE8F08F31
:1040A00010B5684A1268D060664A1268937E00F1C3
:1040B0000B02D25C634B1B68DB7E1A43614B1B68AF
:1040C0009C7E00F10B031A55827A5E4B1B681B7FA6
:1040D0001A4382725B4A1268917E594A525C594B6C
:1040E0001B68DB7E9A43564B5A541A46525C3AB9C7
:1040F000544A1268137F514A12789A434F4B1A70F0
:1041000010BD0023837200F10B01002204E00023A4
:1041100001F8013B531CDAB2042AF8DB704705E0D2
:1041200011F8013B00F8013B531E9AB2002AF7DC5C
:1041300070470246002005E011F8013B02F8013B00
:10414000431CD8B20B78002BF6D113707047014690
:10415000002002E0491C421CD0B20A78002AF9D1A2
:1041600070472DE9F84F05460E4617469846DDE99B
:104170000BABDDF828900020009001F073FB00905D
:1041800031480468002C53D02F49606808600098BB
:1041900001F06CFB266025760020A075E075A082FA
:1041A00000BF00BF00BF00BF00BF6077E810A0766F
:1041B00005F007006076A17E012088402077617EAF
:1041C00001208840E0760020E06020612062A0624B
:1041D0006062E0622063606301F044FB00901B4872
:1041E00040F825401A48006860600020A060184828
:1041F000006810B116480068846015480460207F8C
:104200000E49097808430D490870A07E0C49085CE6
:10421000E17E0843A17E0A4A50540E480078401CB3
:104220000C490870009801F021FB0020BDE8F88FD0
:10423000009801F01BFB4220F8E70000201000204E
:10424000211000202C1000203010002054170020D6
:1042500038100020261000202DE9F04104460D46BC
:1042600000272078042804D0012028700020BDE811
:10427000F081FE480078002803DD0220287000202D
:10428000F5E701F0EFFA074620890612207AFF28A9
:104290001ED1208900F47F4020812089F4490968DB
:1042A000097E08432081F24800686060F048006899
:1042B000007EB04205DC384601F0D8FA782028703C
:1042C00004E0384601F0D2FA002028700120CEE741
:1042D000384601F0CBFA0020287000BFC7E72DE96F
:1042E000F04105460E460027E0480078002804DD2E
:1042F000102030700020BDE8F08101F0B3FA0746CD
:10430000DC4850F8250030B1384601F0AFFA2820DB
:1043100030700020EFE70120D64941F82500D6484B
:1043200004684CB9002041F82500384601F09EFA97
:10433000042030702046DEE7CF4800684068CE4950
:104340000860384601F092FA04202070FF2040EA0D
:1043500005202081002060602046FFF7D2FE00206B
:1043600030702046C7E730B5827EC44B9B5CC47E6C
:10437000A343C24CA35423469B5C2BB9047FC04B80
:104380001B78A343BE4C23700176C1F3C20383762E
:1043900001F007034376847E0123A3400377447E24
:1043A0000123A340C376037FB54C24782343B44C48
:1043B0002370837EB14CE35CC47E2343847EAF4D87
:1043C0002B55AC4B43F8210030BD2DE9F84F044686
:1043D0008A461546002000902078042804D0012049
:1043E00028702046BDE8F88FA0480078002803DD3B
:1043F0000F2028702046F5E701F034FA0090A07AEB
:1044000010B14FF0010801E04FF00008BAF1000FC1
:1044100003D0BAF1010F54D11EE0B8F1000F14D14E
:10442000208907120020934941F827002070924804
:1044300000686060002020818F480460009801F0CF
:1044400015FA00202870002605E0009801F00EFA09
:104450004920287026463BE02089071294F808B0CE
:10446000D4F80490B9F1000F07D099F81800B842B9
:1044700003D159464846FFF776FF05E00023102296
:1044800019462046FFF7A9FDA07A0028F6D1208919
:1044900007120020774941F827002070764800680D
:1044A00060600020208174480460009801F0DEF90B
:1044B000B8F1010F01D1FFF7ADFC002028700026F4
:1044C00006E0009801F0D2F907202870264600BFC8
:1044D00000BF304686E72DE9F74F82B00546174604
:1044E000002001902878042804D00120387005B0FD
:1044F000BDE8F08F5D480078002802DD02203870AA
:10450000F5E760480078002802DD0D203870EEE7FE
:1045100001F0A8F9019028894FEA2028287AFF287D
:104520001DD1288900F47F402881288950490968D5
:10453000097E084328814E48006868604C4800683E
:10454000007E404505DC019801F090F97820387034
:1045500004E0019801F08AF900203870C7E795F867
:1045600008B06C68207E40456ADD41480068007EE6
:10457000584565DA94F81A90404810F80900E17E31
:104580000840A0B13D4810F80900E17E88433B494E
:1045900001F80900084610F8090028B9217F3848B9
:1045A00000788843364908704FF0010A12E0E66847
:1045B00076B1A17E06F10B00405CE17E8843A27ECD
:1045C00006F10B01885418B9B07A217F8843B07284
:1045D0004FF0000A84F81880207EC010A076207E5C
:1045E00000F007006076A17E012088402077617E80
:1045F00001208840E076BAF1010F0ED1207F2049DA
:10460000097808431E490870A07E1C49085CE17EB9
:104610000843A17E194A50540FE0E6686EB1B07AA3
:10462000217F0843B072A17E06F10B00405CE17E61
:104630000843A27E06F10B0188540E4840F828403A
:104640000B480068807D40F01000094909688875B2
:10465000002007490968C8750549039809688882D8
:104660002846FFF71DFD01980EE000001C100020F9
:104670002C100020541700201810002021100020BA
:10468000201000201D10002001F0F0F8FFF7C2FB01
:1046900001F0E8F801905D480068C07D20B1012874
:1046A00009D0022806D102E0002038700BE00E206D
:1046B000387008E000BF294654480068FFF77BFCCB
:1046C0000A20387000BF00BF002050490968887573
:1046D0004E490968C8754D490968C860019801F0DC
:1046E000C5F800BF03E72DE9F0410446002748481C
:1046F0000078002802DD0520BDE8F081207804283C
:1047000001D00120F8E701F0ADF807462089061234
:10471000257A3E4960680968884204D0384601F02D
:10472000A5F86420E8E739480068007EB04204D16B
:10473000294636480068FFF716FE0120354941F842
:104740002600A07A08B30023102219462046FFF75E
:1047500044FC0546208900F47F40208120892843BD
:1047600020812C4850F825006060B54206DC3846B0
:1047700001F07CF8FFF74EFB7820BDE7384601F0EA
:1047800075F8FFF747FB0020B6E7208940F0FF00EF
:10479000208100206060384601F068F80020ABE717
:1047A0002DE9F04705460C464FF0000918480078FF
:1047B000002802DD0620BDE8F0872878042801D013
:1047C0000120F8E701F04EF8814628890012E071D7
:1047D000287AA071A079FF2802D10120607101E040
:1047E00000206071A87A207105F10B082646002789
:1047F00005E018F8010B06F8010B781CC7B2042F6E
:10480000F7DB484601F032F80020D4E72C100020F6
:104810001C1000205417002070B504460026207894
:10482000032801D0002070BD01F01CF80646258940
:10483000002D02DD2089401E2081304601F016F84F
:104840002846F0E770B505460026D44800780028D1
:1048500001DD002070BD01F005F80646D04804686F
:10486000006820B1CE4800684068CD4908603046F5
:1048700000F0FCFF3CB10320207025810020606027
:104880002046FFF73EFC2046E4E72DE9F0470446CA
:10489000884615464FF000092078032804D00120EF
:1048A00028702046BDE8F087BC480078002803DD6A
:1048B0000F2028702046F5E700F0D4FF8146A07A4B
:1048C00008B1012700E00027B8F1000F03D0B8F1CC
:1048D000010F35D117E07FB900202070B048006883
:1048E000606000202081AE480460484600F0BEFFB2
:1048F00000202870002605E0484600F0B7FF492058
:104900002870264623E005E00023012219462046B0
:10491000FFF763FBA07A0028F6D12070A04800685A
:104920006060002020819E480460484600F09EFFA1
:10493000012F01D1FFF76EFA00202870002606E053
:10494000484600F093FF07202870264600BF00BFAE
:104950003046A7E72DE9F04105460E4614460027EC
:104960002878032803D001202070BDE8F0818B480F
:104970000078002802DD02202070F6E789480078E0
:10498000002802DD0D202070EFE700F06BFF0746E6
:104990002889002808DD2889401E2881384600F033
:1049A00065FF00202070E0E77F480068807D40F0D0
:1049B00001007D490968887500207B490968C87530
:1049C0007948006886822846FFF76AFB384600F07F
:1049D0004DFFFFF71FFA00F045FF074672480068D9
:1049E000C07D20B1012809D0022806D102E00020B4
:1049F00020700BE00E20207008E000BF29466A48B6
:104A00000068FFF7D8FA0A20207000BF00BF00201E
:104A100065490968887564490968C8756249096803
:104A2000C860384600F022FF00BF9EE72DE9F04144
:104A300004460F4615464FF000082078032804D09E
:104A4000012028700020BDE8F08100F00BFF8046B7
:104A5000A07A20B300267FB1012F0CD107E00223FA
:104A6000012200212046FFF7B8FA701CC6B2A07AD6
:104A70000028F4D109E000BF0223012200212046D2
:104A8000FFF7ABFA701CC6B200BF00BF404600F093
:104A9000EDFEFFF7BFF90E2028703046D3E7404601
:104AA00000F0E4FE0020287000BFCCE770B504469B
:104AB00000252078032801D0012070BD00F0D2FE2F
:104AC0000546A07A60B10023012219462046FFF76F
:104AD00084FA284600F0CAFEFFF79CF90020ECE7B4
:104AE00020894FF6FF71884207D22089401C20811F
:104AF000284600F0BBFE0020DFE7284600F0B6FEA7
:104B00003220DAE72DE9F04704460D464FF0000960
:104B10002078032802D00120BDE8F08700F0A2FE33
:104B20008146A07AA87104F10B07AE1C4FF0000873
:104B300007E017F8010B06F8010B08F1010000F07F
:104B4000FF08B8F1040FF4DB20892880484600F004
:104B50008DFE0020E0E72DE9F04104460E461546A3
:104B600000272078032803D001202870BDE8F081B9
:104B700000F078FE0746002028702089002801DD1B
:104B8000268105E0A07A08B9268101E04920287035
:104B9000384600F06BFE00BFE8E700001C10002064
:104BA000181000201D1000202C1000202DE9FF5FA0
:104BB000814688460020009000F054FE0090F7489F
:104BC00050F8280030B1009800F050FE282004B0C2
:104BD000BDE8F09FB9F1FF0F03D1F148006890F8EC
:104BE0001890EE4850F8294024B9009800F03EFE95
:104BF0002920ECE7012C04D1009800F037FE432077
:104C0000E5E74FEAE80708F0070003900120B84005
:104C100000F0FF0A01210398814001F0FF0B002002
:104C2000DE4941F82900084640F82840A67E207F4A
:104C30000290E07E0190DB48815D01980140D1B196
:104C4000D848805D01998843D64988550846805DDB
:104C500028B9D548007802998843D3490870D248CA
:104C6000007840EA0A00D0490870CE48C05D40EAAA
:104C70000B00CC49C855E568D5B105F10B00805D46
:104C80000199884305F10B0188550846805D18B9E4
:104C9000A87A02998843A872A87A40EA0A00A87202
:104CA00005F10B00C05D40EA0B0005F10B01C85592
:104CB00084F81880A7760398607684F81CA084F89E
:104CC0001BB0009800F0D2FDB8480078012801D14F
:104CD000FFF7A0F800207AE72DE9FE4F06460F46C1
:104CE00090461C464FF0000900F0BCFD8146B048DC
:104CF0000078002805DD484600F0B8FD3C20BDE8FE
:104D0000FE8FA64850F8240060BB0120A34941F85B
:104D10002400484600F0AAFD0023424639463046AA
:104D200000F0ECFD82460020009001900346024610
:104D3000514602902046FFF714FA054635B99B48C4
:104D4000007801280CD1FFF765F809E000F08AFD32
:104D500081460020914941F82400484600F086FD34
:104D60002846CCE7484600F081FD2820C7E770B50B
:104D7000054600268E480078002801DD402070BDE1
:104D80001F2D01D13E20FAE700F06CFD0646FF2DF5
:104D900002D183480068057E804850F8254024B938
:104DA000304600F063FD4320E9E7012C04D1304692
:104DB00000F05CFD3D20E2E7A07E7A49085CE17EE0
:104DC0008843A17E774A5054A07E1146085C28B9DA
:104DD000217F75480078884373490870E06818B1EE
:104DE0002046E168FFF7E7F80020A082A075E07593
:104DF00070480078FF2804D26E480078401C6D4946
:104E00000870304600F032FDFFF7D4F800F02AFDBC
:104E1000064668480078002804DD66480078401E91
:104E20006449087064480078401E63490870002097
:104E30005A4941F82500A06830B9002061688860AF
:104E40005E496068086005E0D4E901014860D4E982
:104E5000011088605A48006860605948046000206A
:104E60006063304600F002FD50480078012801D10F
:104E7000FEF7D0FF002082E72DE9F041044600272D
:104E80001F2C02D13E20BDE8F081FF2C0AD100F09A
:104E9000E9FC074642480068467F384600F0E6FCD9
:104EA0003046F0E700F0DEFC07463C4850F824505E
:104EB00025B9384600F0DAFC4320E4E7012D04D19F
:104EC000384600F0D3FC3D20DDE73F2068773846C8
:104ED00000F0CCFC0020D6E72DE9F04706460F464F
:104EE00014464FF0000832480078002804DD1120F5
:104EF00020700020BDE8F08700F0B4FC8046FF2E53
:104F000002D127480068067E244850F8265035B95B
:104F1000404600F0ABFC432020700020EAE7012D62
:104F200006D1404600F0A2FC432020700020E1E7BB
:104F30003846696BFFF7FDF88146404600F096FC65
:104F4000002020704846D5E72DE9F04106460F467F
:104F500014464FF0000816480078002803DD1220A0
:104F60002070BDE8F08100F07DFC8046FF2E02D16C
:104F70000B480068067E094850F826502DB9404677
:104F800000F074FC43202070EBE7012D1AD140465D
:104F900000F06CFC43202070E3E700005417002071
:104FA0002C100020211000202010002025100020AF
:104FB0001C1000201D10002026100020381000209A
:104FC000301000206F63404600F050FC002020703D
:104FD00000BFC6E770B50546002600F043FC064654
:104FE000574850F8254024B9304600F03FFC462091
:104FF00070BD012C04D1304600F038FC4320F7E7A7
:10500000A07D00F0080040B3A07D20F00800A0754E
:10501000A07DE8B9A08AB8B9207F4A490978084339
:1050200048490870A07E4849085CE17E0843A17E9B
:10503000454A5054304600F019FC44480078012895
:1050400009D1FEF7E7FE06E0304600F00FFC02E073
:10505000304600F00BFC0020CAE7304600F006FCAA
:105060004420C5E72DE9F04105464FF0000800F067
:10507000F9FB8046FF2D04D135480068057E0126E6
:1050800007E033480068007EA84201D1012600E015
:1050900000262B4850F825402CB9404600F0E6FB8E
:1050A0004820BDE8F081012C04D1404600F0DEFB31
:1050B0004320F6E7A77E2448C05DE17E884322496D
:1050C000C8550846C05D28B9217F1E48007888432E
:1050D0001C490870A07D40F00800A075404600F013
:1050E000C5FB012E01D1FEF795FE0020D9E72DE981
:1050F000F04105460E46002700F0B4FB0746FF2DA1
:1051000002D113480068057E0D4850F825402CB99F
:10511000384600F0ABFB2920BDE8F081012C04D11A
:10512000384600F0A3FB4320F6E7382221463046FC
:10513000FEF7F5FF384600F099FB0020ECE7000091
:1051400054170020201000202110002025100020DE
:105150002C10002070B50546002663480078002812
:1051600000DD70BD002D20DD00F07CFB06465F48B1
:105170000068847E5E48005D5C490968C97E88439A
:105180005B4908550846005D38B958480068017FFA
:105190005848007888435749087054480068858209
:1051A000304600F063FBFEF735FE00BFD9E72DE97E
:1051B000F04706460F46904699464B48007800282F
:1051C00002DD5520BDE8F08709F10200C8214843FF
:1051D0004FF47A71B0FBF1F14FF461607043C7EBAB
:1051E000071200EB8200404400EBC00202EB00100B
:1051F00001EBC004250CA4B22046FFF7ABFF09E089
:105200004FF40040FFF7A6FF4FF40040FFF7A2FF66
:10521000681E85B2002DF3DC0020D3E770B505468B
:1052200000261F2D01DB2A2070BD00F01BFB064667
:10523000314850F8254024B9304600F017FB432090
:10524000F2E7012C04D1304600F010FB4320EBE7DD
:10525000A08A20B9304600F009FB5020E4E7002086
:10526000A082A07D00F0370030B1A07D20F0370093
:10527000A0750120E07501E00020E075A07D00F040
:10528000080098B9207F1B4909780843194908701C
:10529000A07E1749085CE17E0843A17E144A505461
:1052A000304600F0E3FAFEF7B5FD02E0304600F0CC
:1052B000DDFA0020B8E770B5002500F0D3FA054606
:1052C0000E480468284600F0D1FA204670BD70B53B
:1052D0000446002500F0C6FA054608480460284642
:1052E00000F0C4FA70BD00001C1000202C1000203B
:1052F000211000202010002054170020441000200E
:1053000010B5B0F1005F0AD3F74CA04207D84401B2
:1053100004EB810303F10852002414600CE0B0F1A7
:10532000804F09D3F14CA04206D8440104EB81031D
:1053300003F184420024146010BD10B5B0F1005F89
:105340000AD3E94CA04207D8440104EB810303F1DE
:105350000852012414600CE0B0F1804F09D3E34CF3
:10536000A04206D8440104EB810303F184420124E6
:10537000146010BD2DE9F0410446102C4BD2DFE83B
:1053800004F0080E0F1014212E090A0B0C11120D37
:10539000133B00BF00BF00BF00BF00BF61E000BF04
:1053A00000BF00BF00BF00BF5BE000F049FA8046CD
:1053B000CF48006820F48030CD490860404600F0B6
:1053C00043FA4EE000F03CFA8046C948006820F4F9
:1053D0000030C7490860404600F036FA41E000F06E
:1053E0002FFA8046C248006820F48020C049086037
:1053F000404600F029FA34E000F022FA80464FF0EF
:10540000E020006920F001004FF0E02108614046F3
:1054100000F01AFA25E04FF0E0204068401C01211E
:1054200001EB4010C6B2B4421ADAA4F11000C11761
:1054300000EBD161C1F34715C11700EBD1614911F0
:10544000A0EB4111CFB200F0FBF980460120B8403B
:10545000A90001F1E021C1F88001404600F0F4F913
:1054600000BF00BFBDE8F0812DE9F0410446102CDB
:105470004BD2DFE804F0080E0F1014212E090A0B9E
:105480000C11120D133B00BF00BF00BF00BF00BFD7
:1054900061E000BF00BF00BF00BF00BF5BE000F0E5
:1054A000CFF980469248006840F480309049086007
:1054B000404600F0C9F94EE000F0C2F980468C4841
:1054C000006840F400308A490860404600F0BCF9AA
:1054D00041E000F0B5F980468548006840F480203E
:1054E00083490860404600F0AFF934E000F0A8F9C5
:1054F00080464FF0E020006940F001004FF0E021CD
:105500000861404600F0A0F925E04FF0E020406837
:10551000401C012101EB4010C7B2BC421ADAA4F1D1
:105520001000C11700EBD161C1F34715C11700EBA3
:10553000D1614911A0EB4111CEB200F081F9804652
:105540000120B040A90001F1E021C1F8000140466E
:1055500000F07AF900BF00BFBDE8F0812DE9F05FEF
:1055600006460D46284600F075F982464FEA1A6550
:10557000102E7AD2DFE806F0080E0F10111F2E0948
:105580000A0B0C3D4C0D5A6900BF00BF00BF00BFA5
:1055900000BF9FE000BF00BF9CE000F051F98346D0
:1055A00053480C38046824F0FF042C430460584628
:1055B00000F04AF98EE000F043F983464C480C387D
:1055C000046824F47F4444EA05240460584600F04B
:1055D0003BF97FE000F034F9834645480C38046815
:1055E00024F47F0444EA05440460584600F02CF992
:1055F00070E000F025F983463D480838046824F03F
:105600007F4444EA05640460584600F01DF961E0F7
:1056100000F016F983463648001F046824F0FF04A2
:105620002C430460584600F00FF953E000F008F9ED
:1056300083462F48001F046824F47F0444EA05448D
:105640000460584600F000F944E000F0F9F88346A1
:105650002748001F046824F07F4444EA056404607E
:10566000584600F0F1F835E0FFE74FF0E0204068E1
:10567000401C012101EB401000F0FF094E4528DAE3
:10568000A6F11000C11700EB9171C1F38707C11794
:1056900000EB91718910A0EB810101F0FF0800F08F
:1056A000CFF88346B80000F1E020D0F800444FEA7C
:1056B000C801FF20884084434FEAC80105FA01F081
:1056C0000443B80000F1E020C0F80044584600F060
:1056D000BBF800BF00BFBDE8F09F2DE9F05F0646B4
:1056E000102E6BD206E00000FFFF0F20FFFF0F40DF
:1056F00024ED00E0DFE806F0080F121518222D094E
:105700000A0B0C35400D4B5700BF00BF00BF00BF58
:1057100000BF474C80E06FF002047DE06FF00104B1
:105720007AE04FF0FF3477E000F08AF88346414892
:105730000568ECB2584600F087F86DE000F080F89C
:1057400083463C480568C5F30724584600F07CF8BA
:1057500062E000F075F8834636480568C5F30744F3
:105760005AE000F06DF883463248001D05682C0EA3
:10577000584600F069F84FE000F062F883462D4883
:1057800008300568ECB2584600F05EF844E000F0DE
:1057900057F88346274808300568C5F3074458463C
:1057A00000F052F838E000F04BF88346214808300A
:1057B00005682C0E584600F047F82DE04FF0E02029
:1057C0004068401C012101EB401000F0FF0A5645E3
:1057D00020DAA6F11000C11700EB9171C1F3870820
:1057E000C11700EB91718910A0EB810101F0FF0955
:1057F00000F026F883464FEA880000F1E020D0F858
:105800000054584600F020F84FEAC90025FA00F08D
:10581000C4B200E0064C00BF00BF002C04DB2046F1
:1058200000F018F807463C0E2046BDE8F09F000047
:105830000080FFFF18ED00E072B6704762B6704757
:10584000EFF3108072B6704780F310887047B0FA9B
:1058500080F0704790FAA0F0704730BF704720BFCB
:1058600070470000EFF3108072B6704780F3108825
:1058700070471B484FF0FF010170002080F309883A
:1058800018480121017018484FF08051016062B63C
:10589000FEE715484FF080510160704712484FF005
:1058A00080510160704772B6EFF3098028B120384B
:1058B00080E8F00F0D49096808600D480D490A7825
:1058C00002700A480C490A680260106890E8F00FFC
:1058D000203080F309884EF0040E62B67047000055
:1058E00022ED00E02510002004ED00E02C10002047
:1058F0001E1000201F1000203410002070B5044638
:1059000010464FF080750560051F28462C606FF02B
:105910000106051F28462E604FF01236051F284647
:105920002E604FF00336051F28462E604FF00236DA
:10593000051F28462E607610051F28462E60051F7D
:10594000284629604FF01136051F28462E604FF07B
:105950001036051F28462E604FF00936051F2846D1
:105960002E604FF00836051F28462E604FF0073690
:10597000051F28462E604FF00636051F28462E606C
:105980004FF00536051F28462E604FF00436051FE0
:1059900028462E6070BD10B5FFF764FF044613481B
:1059A0000078401C114908702046FFF75FFFFEF7A2
:1059B0009FFAFEF7DDF910BD10B586B001A803F01F
:1059C00088F9C8210298B0FBF1F4601E4FF0E02185
:1059D00048610846006940F0050008610846006912
:1059E00040F00200086106B010BD00001C1000204D
:1059F00070B5044600262078012801D0002070BD33
:105A0000FFF730FF06466568002060603046FFF70C
:105A10002DFF2846F3E770B505460026E2480078DA
:105A2000002801DD002070BDFFF71CFF0646DF489F
:105A30000468006820B1DD4800684068DB49086000
:105A40003046FFF713FF3CB1012020700020208179
:105A500065602046FEF755FB2046E4E72DE9F04758
:105A60000446884615464FF000092078012804D0E6
:105A7000012028702046BDE8F087CB480078002838
:105A800003DD0F2028702046F5E7FFF7EBFE814687
:105A9000A07A08B1012700E00027B8F1000F03D079
:105AA000B8F1010F35D117E07FB900202070BF4851
:105AB0000068606000202081BC4804604846FFF711
:105AC000D5FE00202870002605E04846FFF7CEFEF0
:105AD00049202870264623E005E0002302221946CB
:105AE0002046FEF77AFAA07A0028F6D12070AF4857
:105AF0000068606000202081AC4804604846FFF7E1
:105B0000B5FE012F01D1FEF785F90020287000268F
:105B100006E04846FFF7AAFE07202870264600BF89
:105B200000BF3046A7E72DE9F04105460F46144671
:105B30004FF000082878012804D0012020700020B0
:105B4000BDE8F08198480078002803DD022020702D
:105B50000020F5E796480078002803DD0D2020702E
:105B60000020EDE7FFF77EFE80466E6846B100201C
:105B700068604046FFF77AFE002020703046DFE77D
:105B80008C480068807D40F002008A490968887569
:105B9000002088490968C8758648006887822846B9
:105BA000FEF77EFA4046FFF761FEFEF733F9FFF796
:105BB00059FE80467F480068C07D20B101280DD085
:105BC00002280AD105E07B480068066900202070A1
:105BD0000DE000260E20207009E000BF2946754820
:105BE0000068FEF7E8F900260A20207000BF00BF19
:105BF00000207049096888756E490968C8756D4943
:105C00000968C8606B49096808614046FFF72EFEC5
:105C1000304695E72DE9F04104460F4615464FF012
:105C200000082078012804D0012028700020BDE859
:105C3000F081FFF717FE8046A07A20B300267FB1DF
:105C4000012F0CD107E002231A4600212046FEF75F
:105C5000C4F9701CC6B2A07A0028F4D109E000BFD4
:105C600002231A4600212046FEF7B7F9701CC6B27F
:105C700000BF00BF4046FFF7F9FDFEF7CBF80E204E
:105C800028703046D3E74046FFF7F0FD002028702B
:105C900000BFCCE770B504460D46002620780128E9
:105CA00001D0012070BDFFF7DDFD0646A07A60B18E
:105CB0000023022229462046FEF78FF93046FFF7DF
:105CC000D5FDFEF7A7F80020ECE7606820B130466C
:105CD000FFF7CCFD1420E5E765603046FFF7C6FD11
:105CE0000020DFE72DE9F04104460E461546002767
:105CF0002078012802D00120BDE8F081FFF7B2FD35
:105D00000746A07AE8B105F0010050B105E0002394
:105D1000022231462046FEF760F9A07A0028F6D12B
:105D200005E00023022231462046FEF756F93846A8
:105D3000FFF79CFD05F0040008B9FEF76BF80020A2
:105D4000DAE7606820B13846FFF790FD1420D3E70A
:105D500066603846FFF78AFD0020CDE72DE9F04761
:105D600004460D464FF000092078012802D001209A
:105D7000BDE8F087FFF776FD8146A07A287204F12E
:105D80000B0705F10408002605E017F8010B08F8D9
:105D9000010B701CC6B2042EF7DB60682860484611
:105DA000FFF764FD0020E3E71C100020181000201E
:105DB0001D1000202C1000202DE9F04106460D4654
:105DC0004FF000083078022804D00120287000200D
:105DD000BDE8F081FFF746FD80467468E08A002840
:105DE0000FDD2169081D20610F68E08A401EE082F6
:105DF000A1682069884201D1606820610020287074
:105E000002E01F20287000274046FFF72FFD38468C
:105E1000DEE72DE9F04106460F464FF00008F7484F
:105E20000078002802DD0020BDE8F081FFF71AFDB0
:105E30008046F3480568006820B1F1480068406872
:105E4000EF4908604046FFF711FD3DB3FFF70AFD3B
:105E50008046EC480468C4B100680068E9490860FD
:105E60004046FFF703FD666006EB8700A060E66032
:105E70002661A7820020E08202202870002028816D
:105E80006C602846FEF73DF908E0DD480068686070
:105E9000DB4805604046FFF7E9FC00252846C3E7DC
:105EA0002DE9F0470446894615464FF0000A207850
:105EB000022804D0012028702046BDE8F087CF4892
:105EC0000078002803DD0F2028702046F5E7FFF753
:105ED000C9FC8246A07A10B14FF0010801E04FF0F2
:105EE0000008B9F1000F03D0B9F1010F45D11FE04F
:105EF000B8F1000F15D16668C24800683060C1482B
:105F0000066000202070BE4800686060002020818C
:105F1000BB4804605046FFF7A9FC0020287000270A
:105F200005E05046FFF7A2FC4920287027462BE0E9
:105F300005E00023042219462046FEF74EF8A07A19
:105F40000028F6D16668AF4800683060AD4806604A
:105F500000202070AA480068606000202081A848C6
:105F600004605046FFF782FCB8F1010F01D1FDF744
:105F700051FF00202870002706E05046FFF776FC0E
:105F800007202870274600BF00BF384695E770B548
:105F900005460026FFF766FC06466C686068E06010
:105FA000606820610020E0823046FFF75FFC00203F
:105FB00070BD2DE9F0470746884615464FF00009A9
:105FC0003878022804D0012028700020BDE8F0872E
:105FD0008A480078002803DD022028700020F5E7B9
:105FE00089480078002803DD0D2028700020EDE7A7
:105FF000FFF738FC81467C68E08A002813DD2169C0
:10600000081D20610E68E08A401EE082A1682069B8
:10601000884201D1606820614846FFF727FC0020D4
:1060200028703046D2E779480068807D40F004004F
:10603000764909688875002074490968C8757348ED
:106040000068A0F814803846FEF72AF84846FFF7A3
:106050000DFCFDF7DFFEFFF705FC81466B4800688D
:10606000C07D20B101280DD002280AD105E0674883
:1060700000680669002028700DE000260E202870B8
:1060800009E000BF394661480068FDF794FF00262B
:106090000A20287000BF00BF00205C49096888758D
:1060A0005A490968C87559490968C8605749096853
:1060B00008614846FFF7DAFB304687E72DE9F041F3
:1060C00004460F4615464FF000082078022804D0F9
:1060D000012028700020BDE8F081FFF7C3FB804657
:1060E000A07A20B300267FB1012F0CD107E0022354
:1060F000042200212046FDF770FF701CC6B2A07A72
:106100000028F4D109E000BF022304220021204628
:10611000FDF763FF701CC6B200BF00BF4046FFF72B
:10612000A5FBFDF777FE0E2028703046D3E74046EA
:10613000FFF79CFB0020287000BFCCE72DE9F04161
:1061400005460E4600272878022802D00120BDE827
:10615000F081FFF787FB0746A87A60B1002304228D
:1061600031462846FDF739FF3846FFF77FFBFDF73C
:1061700051FE0020EBE76C68E08AA18A884204DBCC
:106180003846FFF773FB1E20E1E7E168081DE06079
:106190000E60E08A401CE082D4E90210884201D1FE
:1061A0006068E0603846FFF761FB0020CFE72DE92B
:1061B000F04105460E4600272878022802D001202B
:1061C000BDE8F081FFF74EFB0746A87A60B10023D7
:1061D000042231462846FDF700FF3846FFF746FB0C
:1061E000FDF718FE0020EBE76C68E08AA18A884280
:1061F0000EDB3846FFF73AFB1E20E1E71C100020BB
:1062000018100020401000201D1000202C1000202D
:1062100061682069884201D1A06820612069001F5F
:10622000206120690660E08A401CE0823846FFF762
:106230001DFB0020C4E72DE9F04105460F46164638
:106240004FF000082878022802D00120BDE8F08134
:10625000FFF708FB8046A87AE8B106F0010050B1CC
:1062600005E00023042239462846FDF7B6FEA87A49
:106270000028F6D105E00023042239462846FDF720
:10628000ACFE4046FFF7F2FA06F0040008B9FDF74D
:10629000C1FD0020DAE76C68E08AA18A884204DB4D
:1062A0004046FFF7E3FA1E20D0E706F0020058B19F
:1062B00061682069884201D1A06820612069001FBF
:1062C00020612069076009E0E168081DE0600F6057
:1062D000D4E90210884201D16068E060E08A401C85
:1062E000E0824046FFF7C2FA0020AFE72DE9F04711
:1062F00005460C464FF0000A2878022802D00120FB
:10630000BDE8F087FFF7AEFA8246A87A207305F160
:106310000B0804F10809002705E018F8010B09F83B
:10632000010B781CC7B2042FF7DB6E68F08A0028D7
:1063300003DD30690068206001E000202060F08A01
:10634000A080B08AE0805046FFF790FA0020D7E79F
:1063500070B54FF440710A48FDF775FC084C04F124
:106360001806002504E0266018341836681C85B22B
:106370001F2DF8DB0020206001480249086070BD35
:106380002C1E00204010002010B502F0A1FB4FF49D
:10639000803002F0BDFB02F0FAFB0446012C24D150
:1063A000002002F03AFC002002F049FCA00202F0BA
:1063B0003DFC022001F09AFE102001F0ABFE4FF4EC
:1063C000E011200402F00CFC012002F015FC00BFDB
:1063D000392002F0C0FB0028FAD0022002F00FFCA6
:1063E00000BF02F015FC0828FBD10121084602F08D
:1063F000DDFC10BD1CB5FFF7C7FF4FF420514FF077
:10640000006001F0DAFD4FF4407001F09FFD4FF4A1
:10641000C04003F0DDF907480E2100234FF48062ED
:10642000CDE9001004A1074803F0DFFA03F0EFF90B
:1064300000201CBD481000204469737061746368BB
:1064400000000000F3670008BA480068704710B504
:1064500088B0044668460FF077F8B64804600068D4
:10646000000E8DF80000B3480068000C8DF80100A4
:10647000B0480088000A8DF80200AE4800788DF818
:10648000030068460FF02EF8002000F0EBF96420BE
:10649000FEF760FE012000F0E5F908B010BDA64847
:1064A000704710B588B068460FF04EF80446ECBB54
:1064B0009DF8000000069DF8011040EA01409DF89B
:1064C000021040EA01209DF8031008439949086032
:1064D0009DF8040000069DF8051040EA01409DF873
:1064E000061040EA01209DF8071008439349086010
:1064F0009DF8080000069DF8091040EA01409DF84B
:106500000A1040EA01209DF80B1008438C490860EE
:106510009DF80D009DF80C1040EA01208949088083
:106520000120894908709DF80E0000E002E08249D0
:10653000087049E0042C47D17E480068000E8DF8B1
:1065400000007C480068000C8DF801007948008844
:10655000000A8DF80200774800788DF8030077482C
:106560000068000E8DF8040074480068000C8DF877
:10657000050072480088000A8DF806006F48007810
:106580008DF807006E480068000E8DF808006C4812
:106590000068000C8DF8090069480088000A8DF831
:1065A0000A00674800788DF80B0066480088000AEA
:1065B0008DF80C00634800788DF80D0000208DF8F0
:1065C0000E0068460EF08EFF08B010BD10B5102208
:1065D00008215EA003F0ECFB5E4908601022082150
:1065E0005DA003F0E5FB5E4908600C2208215DA078
:1065F00003F0DEFB5D49086010BD00B58DB0FFF70C
:10660000DBF90F210E20FEF7A9FF0F210846FEF748
:10661000A5FF57480068574908605548001D0068A5
:106620004860534808300068886040F2596106208D
:10663000FDF71BF9FCF73BFB4FF400200FF08BFE3E
:10664000FFF72FFFFFF7C2FF04F025FDFDF794F9D8
:10665000002000F00AF9C820FEF77CFD00F062FF80
:1066600004F03FF93648016808A803F0F9FD354801
:10667000018808A80DF0C7FC00F004FE3D48052184
:1066800004220E23CDE90432CDE9061001201021A9
:106690000F224FF4FA73CDE90032CDE902104EF625
:1066A0006023354A35490FF069FE35481221002331
:1066B0004FF42072CDE9001032A1354803F095F96E
:1066C0003448132100234FF42072CDE9001032A189
:1066D000344803F08AF93448112100234FF4207222
:1066E000CDE9001031A1344803F07FF9334815217A
:1066F00000234FF42072CDE9001031A1344803F09B
:1067000074F9642003F006FA03F0C3F9012240F2A1
:106710002551304802F0B3FE012240F225512E48A7
:1067200002F0ADFE012240F225512C4802F0A7FEF6
:106730000DB000BD781000207C8200207C1000206D
:1067400080100020841000208610002044736E64A6
:106750004576740094100020446D7367457674008C
:106760009810002044656374457674009C100020E6
:10677000E8F7FF1F70820020613B0108CB4E010843
:106780004C100020446973706C6179520000000065
:106790008775000850100020446973706C6179534C
:1067A000000000000976000854100020506172615A
:1067B00052656672657368006F7600085C10002091
:1067C00053746174654D616368696E650000000013
:1067D000EBB000080038014000480040004C004089
:1067E00010B50C2208211AA003F0E2FA1A49086039
:1067F00010BD1CB500BFFFF7F3FFFFF7FEFE03F06F
:10680000D2FC044600BF22E0FDF741F8142269469D
:106810001148006803F0E9FB03F03BF90F480068FA
:10682000401C0E490860084600681421B0FBF1F2D4
:1068300001FB120058B9002006E0094A02EB0012E1
:10684000518900BF421C90B21428F6DB00BFDBE781
:106850004470744576740000881000208C1000206D
:1068600030810020FE49086070473EB50446012192
:10687000082002F09BFA0220ADF8080003208DF8F2
:106880000A0010208DF80B0002A9F64801F06CFFF9
:106890000020FFF7E7FFFCF7F1FD10222146F24848
:1068A0000CF078FB0D2004210C230A46CDE90010E2
:1068B0000B2109200DF026FB6420FEF74BFC012084
:1068C000FFF7D0FF3EBD10B588B004461F22214619
:1068D0006846FDF724FC68460EF004FE28B96846B9
:1068E0000EF032FE08B90FF02AF908B010BD70475B
:1068F00070B5054600240AE004EB4400DB4951F87A
:106900002000A84201D1204670BD601CC4B2032CF7
:10691000F2DBD7480078401CC0B2D5490870032884
:1069200001DB00200870D248007800EB4000CF491E
:1069300041F82050CE49097801EB4101CB4A02EBE6
:106940008101081D0522FF2102F068FFC848007878
:10695000DAE730B502460B46032A01DB002030BDE2
:1069600000210CE002EB4200C04C04EB8000001D53
:10697000405C984201D10120F1E7481CC1B20529D1
:10698000F0DB02EB4200B94C04EB8000407A401C83
:10699000C0B202EB4204B54D05EB840460720528D9
:1069A00001DB002005E002EB4200B04C04EB80006C
:1069B000407A02EB4204AD4D05EB8404607202EBB9
:1069C00042002C4604EB8000001D02EB420405EB64
:1069D0008404647A03550020C1E72DE9FF4F8BB092
:1069E000804614461E46DDE918AB002007900A9049
:1069F000099008909F48006883457DD104F0D8FA3B
:106A000001210170B8F1300F77D1072E0FDB20780C
:106A10008DF8290060788DF82800A0788DF8210085
:106A2000E0788DF8200093480068099002E00FB0EC
:106A3000BDE8F08F089880B2099989B2884200D0E9
:106A4000F5E704F026FB008980B20A9989B28842F2
:106A500027D104F01EFB0021816004F01AFBC069FD
:106A6000217988421DD1FEF726FC054604F011FB72
:106A7000056104F00EFB056904F00BFBC0682D1ADC
:106A800004F007FB456104F004FB856904F001FB99
:106A90004069854205D204F0FCFA456904F0F9FA30
:106AA0008561A079323808287ED2DFE800F0EAE973
:106AB0007D7DE87DE7040A98C0F34230012804D0C8
:106AC0000A98C0F3423007286FD1142E6ED10720E8
:106AD0006949087004F059FA67490A780978491C2D
:106AE000654B1970A15C017004F04FFA62490A7895
:106AF0000978491C604B01E08DE36AE31970A15CE1
:106B0000417004F042FA5C490A780978491C5A4BF2
:106B10001970A15C817004F038FA57490A78097835
:106B2000491C554B1970A15C818004F02EFA017943
:106B3000514802780078401C4F4B1870A05C40EA26
:106B4000012085B204F021FA858004F01EFA4A493A
:106B50000A780978491C484B1970A15CC18004F07F
:106B600014FA8179444802780078401C424B18702E
:106B7000A05C40EA012085B204F007FAC58004F069
:106B800004FA3D490A780978491C3B4B1970A15C0D
:106B9000017204F0FAF938490A780978491C364B31
:106BA0001970A15C418102E012E32FE0F4E004F0EF
:106BB000ECF9817A304802780078401C2E4B18702E
:106BC000A05C40EA012085B204F0DFF9458104F0C1
:106BD000DCF929490A780978491C274B1970A15C0E
:106BE000017304F0D2F924490A780978491C224B30
:106BF0001970A15C417304F0C8F91F490A7809783B
:106C0000491C1D4B1970A15C8173C5E00A98C0F343
:106C10004230022804D00A98C0F34230042838D108
:106C20000B2EF2D107201449087004F0B4F9124970
:106C30000A780978491C104B1970A15C017004F0A6
:106C4000AAF90D490A780978491C0B4B1970A15C07
:106C5000417004F0A0F908490978491C615C11E011
:106C600084812142000C01400048004090820020B5
:106C700090100020781000209110002036E1EFE005
:106C8000B6E08AE0F84A1278A25C41EA022141802B
:106C900082E00A98C0F3423003287DD1142E7BD1C4
:106CA0000720F149087004F07AF9EF490A78097869
:106CB000491CED4B1970A15C017004F070F9EA49B0
:106CC0000A780978491CE84B1970A15C417004F0FE
:106CD00066F9E5490A780978491CE34B1970A15C0B
:106CE000817004F05CF9E0490978491C615CDE4A76
:106CF0001278A25C41EA02218180DB480078801C86
:106D0000D949087004F04BF9D7490978491C615CEE
:106D1000D54A1278A25C41EA0221C180D2480078AB
:106D2000801CD149087004F03AF9CF490A780978F3
:106D3000491CCD4B1970A15C017204F030F9CA49AD
:106D40000978491C615CC84A1278A25C41EA0221B8
:106D50004181C5480078801CC349087004F01FF9C0
:106D6000C1490A780978491CBF4B1970A15C0173AD
:106D700004F015F9BC490A780978491CBA4B197016
:106D8000A15C417304F00BF9B7490A780978491CF2
:106D9000B54B1970A15C81731AE2E07901280ED11C
:106DA00004F0EBF841F6747108440021417004F0DE
:106DB000E4F841F6747108440021416013E0E07981
:106DC000022810D104F0D9F841F6747108446179B1
:106DD000417004F0D2F841F674710844617A227A65
:106DE00041EA0221416004F0E3F802210170EFE181
:106DF000F01F002833DD04F0C6F890F8A000617998
:106E000088422CD1F01F00EBD071C1F347010491EF
:106E100000251FE004F0B7F800EB85000390072081
:106E200000EB4500205C0399087004F0ACF800EB1F
:106E30008500401C0390082000EB4500205C03996E
:106E4000087004F0A0F830F8250080B200B904E022
:106E5000681CC5B204988542DCDB00BF00BFB7E107
:106E6000504604F0A7F85046FFF742FD0546217949
:106E7000FFF76FFD012800D1D9E503208DF8180038
:106E800020798DF818000120ADF8160000234FF688
:106E9000FF7205A97548006802F0DEFF0A98C0F38A
:106EA0004230012804D00A98C0F34230072804D1A8
:106EB00004F06DF8E179017117E00A98C0F34230EF
:106EC000022804D00A98C0F34230042804D104F008
:106ED00060F8E179417008E00A98C0F34230032875
:106EE00003D104F05AF8E179017171E1504604F0E0
:106EF00061F85046FFF7FCFC05462179FFF729FDB4
:106F0000012800D193E500208DF8180020798DF834
:106F100018000120ADF8160000234FF6FF7205A9F6
:106F20005248006802F098FF4FF000092BE0002162
:106F3000484603F006FD008880B200B3002716E043
:106F40003946484603F0FDFC008880B260B13946FE
:106F5000484603F0F6FC008880B20A9989B288425C
:106F600003D10120079004E003E0781CC7B2282F6A
:106F7000E6DB00BF079810B10020079006E009F19A
:106F8000010000F0FF09B9F1050FD0DB00BF0A983E
:106F9000C0F34230012804D00A98C0F342300728D9
:106FA00066D1E0790B285DD1082503F0FFFF00884A
:106FB00080B20A9989B2884240D103F0E8FF691C87
:106FC000615C625D41EA0221C180A81CC5B203F088
:106FD000DEFF691C615C625D41EA02210181A81C3F
:106FE000C5B203F0D4FF691C615C625D41EA022115
:106FF0004181A81CC5B203F0CAFF29466A1CD5B25C
:10700000615C017303F0C3FF29466A1CD5B2615C61
:10701000417303F0BCFF29466A1CD5B2615C8173E1
:1070200003F0B5FF29466A1CD5B2615CC17303F059
:10703000AEFF29466A1CD5B2615C0174282F11D0BD
:107040003946484603F07DFCA17B817539464846A8
:1070500003F077FC617CC1753946484603F071FC4A
:10706000A17C8176B3E003E091100020F8100020AD
:107070000A98C0F34230022804D00A98C0F3423084
:1070800004284AD1E0790428ECD1082503F08EFFCA
:10709000008880B20A9989B288421BD103F079FF37
:1070A00029466A1CD5B2615C817003F072FF2946E3
:1070B0006A1CD5B2615CC17003F06BFF29466A1C83
:1070C000D5B2615C017103F064FF29466A1CD5B238
:1070D000615C4171282F1FD03946484603F031FCCE
:1070E000217A41763946484603F02BFC394648461A
:1070F00003F027FC3946484603F023FC617A81758A
:107100003946484603F01DFCA17AC1753946484608
:1071100003F017FCE17A817659E00A98C0F3423017
:10712000032854D1E079092851D1082503F03EFF06
:10713000008880B20A9989B2884233D103F02DFFCA
:10714000691C615C625D41EA0221C180A81CC5B274
:1071500003F023FF691C615C625D41EA0221018149
:10716000A81CC5B203F019FF691C615C625D41EAAD
:1071700002214181A81CC5B203F00FFF29466A1CF9
:10718000D5B2615C017303F008FF29466A1CD5B2D1
:10719000615C417303F001FF014628466A1CD5B2C9
:1071A000205C8873282F11D03946484603F0C9FB6C
:1071B000A17B81753946484603F0C3FBE17BC1756D
:1071C0003946484603F0BDFB217C817600BF00BFF5
:1071D00000BFB8F1500F14D125782D026078054416
:1071E0002D02A07805442D02E0780544554507D1CD
:1071F00003F0C7FE0068A84202D003F0C2FE05609B
:1072000000BFB8F1310F06D103F0B7FE002100F541
:10721000805080F8741F1B9804282BD01B980228DC
:1072200028D017480068834524D1A8F1F0000F2822
:107230001ED2DFE800F008091D1D0D0C0E0A0B1010
:107240001D1D1D1D0F0000BF00BF00BF00BF00BF00
:1072500000BF00BF00BF00211A9833462246CDE987
:1072600000ABCDE9020140460C990EF029FE00E08A
:1072700000BF00BF00BFFFE530B5DDE9034530BD0D
:10728000781000200EB50121042001F08FFD0120AF
:10729000ADF8080003208DF80A0010208DF80B00CF
:1072A00002A99A4801F060FA4FF4E130FCF744F883
:1072B00097480CF079FE0A20042108230922CDE921
:1072C0000010114602200EF03BF80EBD91490860F7
:1072D000704700BF00BF704770472DE9F04FAFB057
:1072E00082460C4617469846DDF8E090BAF1000F4A
:1072F00025D0BAF1070F74D10DF1470B3A4621465C
:10730000584602F09AFD8448006881450CD103205C
:1073100082490968FAB2CDE9001080480221036869
:107320000DA80CF0D7F909E00320FAB2CDE90090DE
:107330007A48022103680DA80CF0CCF9E2E0764807
:107340000068814572D1E0780006217940EA014069
:10735000617940EA0120A17940EA01056F4800689F
:107360008542EFD1E0790006217A40EA0140617A56
:1073700040EA0120A17A40EA0106E07AF6281CD012
:107380000CDCF12814D004DCE22842D0F0287DD1B6
:107390000DE0F42826D0F528F9D10DE0F72808D023
:1073A000F82807D0F92809D0FE28F0D103E000BF63
:1073B00000BF00BF00BF00BF00BF00BFA07800F04B
:1073C000030001280CD1A7F10E018BB2CDE90158C1
:1073D00000960390E07A04F10C0200210EF070FD9B
:1073E0008CE08EE0A07800F0030088B90120CDE9A0
:1073F000015800960390627B94F80CC042EA0C217D
:10740000A7F1100293B2E07A04F10E020EF058FDDB
:1074100074E0A07800F0030000286DD17E208DF884
:107420000C003F48007810B90E2001E068E02220EF
:107430008DF80D0002208DF80E00300E8DF80F0033
:10744000300C8DF81000300A8DF81100F0B28DF874
:107450001200280E8DF81300280C8DF81400280A4D
:107460008DF81500E8B28DF81600E2208DF81700AF
:10747000207B8DF81800607B8DF819002848007873
:107480008DF81A0026480078C0B900E035E00E22D9
:107490000DF10D01002002F09AFF8DF81B007E20F7
:1074A0008DF81C00012000214346CDE900101A4848
:1074B0001121026803A80DF008FD1CE014221849F0
:1074C000491C0DF11B0002F0B8FC22220DF10D0148
:1074D000002002F07CFF8DF82F007E208DF8300018
:1074E000012000214346CDE900100B482521026808
:1074F00003A80DF0EAFC00BF00E000BF00BF00BF22
:1075000000E000BF00BF2FB0BDE8F08F00080140D1
:1075100000380140800121426810002078100020CE
:10752000FCCF002010B5FBF751FF0020FC4908708C
:1075300010220021FB4802F071F910220021FA48C4
:1075400002F06CF94FF400620021F84802F066F98D
:107550004FF400620021F64802F060F902F04AFFA1
:1075600010BD2DE9F04104460D462678A0786178DB
:1075700040EA0127281FC3B2221D3946304603F0D6
:1075800043F8BDE8F0811CB521E000226946E948D6
:10759000006802F02AFD0446CCB99DF800000528D9
:1075A00015D19DF80100042811D19DF804509DF8D3
:1075B0000500DE4901EBC016002D03DD29463046EB
:1075C000FFF7CFFF00219DF80500D64A1154DCE7F4
:1075D00070B505460C460026022C01DB802C00DB32
:1075E00070BD0DE03046721CD6B2295CD24801F065
:1075F000A7FF00BF8021D04802F010F80028F9D082
:10760000A642EFDB00BFEBE71CB52FE00022694686
:10761000CA48006802F0E9FC054605B126E09DF87D
:107620000000052803D19DF80100042800D01DE0CA
:107630009DF804709DF80540BD4800EBC4164FF05E
:107640000008C14607E039463046FFF7C1FFB8F1F0
:10765000000F00D005E04846411C01F0FF09012859
:10766000F1DB00BF0020B049085500BFCEE74FF462
:107670009670FDF76FFD4EE003F042F90088152883
:1076800045D2DFE800F0440B0E114414171A1D20F8
:107690002326292C2F3235383B3E410006F0BCF919
:1076A00035E005F029FF32E006F076FB2FE006F02A
:1076B000B9FE2CE007F0DCF829E007F026FB26E015
:1076C00007F07AFD23E007F02EFF20E008F0C1F973
:1076D0001DE008F0DFFB1AE008F0E8FD17E009F014
:1076E0008BF814E009F0B4FB11E009F00FFD0EE097
:1076F0000AF09AF80BE00AF0CBF908E00AF03AFE3B
:1077000005E00BF0DFF902E00BF012FB00BF00BF59
:10771000C820FDF71FFDAFE72DE9FC5F06460D46CB
:1077200091461F46DDF830A04FF0000B642D5FDC62
:10773000BAF1000F5CD07C4879490978405C002898
:1077400056D105208DF8000004208DF80100E81CBA
:10775000C0B28DF80400FEF785F88346704890F8B3
:1077600000800078401CC0B26D490870102801DB11
:10777000002001E06A480078694908705846FEF721
:1077800075F88DF805808DF8066000234FF6FF72BE
:1077900069466A48006802F05FFB142828D06448F4
:1077A00000EBC814802120460EF0F0FFA5202070C9
:1077B0005A206070A57084F803904EB9380A207181
:1077C0006771E81E82B25146A01D02F036FB08E048
:1077D000012E06D12771A81E82B25146601D02F00B
:1077E0002CFBE81C504901F808000120BDE8FC9F73
:1077F0000020FBE7F8B505460C4616460CB90020FC
:10780000F8BDF01CC1B22B46822200200094FFF785
:1078100083FFF5E77CB505460C4600200190201259
:107820008DF80400E0B28DF8050001A82B468222F5
:10783000052100900020FFF76FFF7CBD2DE9FE4F72
:1078400007460C4615460026A04604E00A20B8FB71
:10785000F0F8701CC6B2B8F1000FF7D135B1012DA8
:107860000AD0022D16D0032D31D121E0224634A1B9
:1078700001A80EF019FE30E00A20B4FBF0F100FB85
:107880001149B4FBF0FA4B4652462EA101A80EF066
:107890000BFE22E06420B4FBF0F100FB1149B4FBC5
:1078A000F0FA4B46524627A101A80EF0FDFD14E068
:1078B0004FF47A70B4FBF0F100FB1149B4FBF0FA1D
:1078C0004B4652461FA101A80EF0EEFD05E02246F0
:1078D0001BA101A80EF0E8FD00BF00BF002D01DDD7
:1078E000701CC6B201A80090F01CC1B23B468222B7
:1078F0000020FFF711FFBDE8FE8F7CB505460C4662
:1079000020128DF80400E0B28DF8050001A82B4686
:107910008222052100900020FFF7FEFE7CBD0000C2
:10792000A0100020B4920020C4920020B482002055
:10793000B48A0020981000200044004094100020D9
:107940002564000025642E25640000002DE9F04127
:107950008CB080460E461446002700250DE036F810
:107960001500001202A9C85516F8151002AA781CB5
:107970001154B81C87B2681C85B2A542EFDB02A87F
:107980000090032000EB4400C1B243468222002055
:10799000FFF7C2FE0CB0BDE8F0817CB505460C4691
:1079A000200E8DF80400200C8DF80500200A8DF8BB
:1079B0000600E0B28DF8070001A82B4682220721BD
:1079C00000900020FFF7A8FE7CBD2DE9F04196B0A5
:1079D00080460D4617460026002419E055F824007D
:1079E000000E02A9885555F82400C0F3074102AAE9
:1079F000701C115435F82400C0F30721B01C115439
:107A000015F82410F01C1154301D86B2601C84B28D
:107A1000BC42E3DB02A80090032000EB8700C1B268
:107A2000434682220020FFF777FE16B0BDE8F081C2
:107A30007CB504460D462846FBF728FC0646301266
:107A40008DF80400F0B28DF8050001A823468222CB
:107A5000052100900020FFF75FFE7CBD1CB50446A9
:107A600000200190E0B2019001A84F238022032161
:107A700000900120FFF750FE1CBD1CB504460020FD
:107A80000190E0B28DF8050001A8032380220421B3
:107A900000900120FFF740FE1CBD1CB504460020ED
:107AA0000190204604EBD07149100A31C9B201910E
:107AB00001A801238022032100901846FFF72CFE25
:107AC0001CBD1CB5002001900F20019001A80123CE
:107AD0008122032100901846FFF71EFE1CBD7CB5D5
:107AE00005460C4620128DF80400E0B28DF8050022
:107AF00001A80090E81C83B2822205210020FFF734
:107B00000BFE7CBD7CB505460C4620128DF80400AA
:107B1000E0B28DF8050001A80090E81D83B2822232
:107B200005210020FFF7F8FD7CBD1CB504460020B0
:107B30000190E0B2019001A811238022032100905E
:107B40000120FFF7E9FD1CBD1CB504460020019093
:107B500014B12C20019001E00C20019001A8122307
:107B60008022032100900120FFF7D6FD1CBD1CB52B
:107B7000044600200190204604EBD07149100A31E0
:107B8000C9B2019101A8162380220321009001208F
:107B9000FFF7C2FD1CBD1CB5044600200190204625
:107BA00004EBD07149100A31C9B2019101A8172321
:107BB0008022032100900120FFF7AEFD1CBD1CB503
:107BC000044600200190E0B2019001A81823802211
:107BD000032100900120FFF79FFD1CBD1CB504464A
:107BE0000020019014B15A20019001E0A5200190DD
:107BF00001A81D238022032100900120FFF78CFDA6
:107C00001CBD10B50520FDF7A5FA10BDF8B5054659
:107C10000C4616460CB90020F8BDB01CC1B22B466C
:107C2000842201200094FFF777FDF5E71CB5044698
:107C300000200190082C04DC04F15500C0B2019032
:107C400001E05520019001A8EB2380220321009040
:107C50000120FFF761FD1CBD03B583B0002001903A
:107C600002905A208DF804009DF80C008DF8050054
:107C70009DF80D008DF806009DF80E008DF80700A8
:107C800000208DF808009DF80F008DF809009DF880
:107C900010008DF80A0000208DF80B0001A81F23AA
:107CA00080220A2100900120FFF736FD05B000BDBB
:107CB000704770B504460D4601F0EBFE01F028FD5B
:107CC00070BD00BFFEE700BFFEE700BFFEE77047E4
:107CD00070477047704770477047704710B5FDF7A1
:107CE000AFFD04468E480078401C8D490870204640
:107CF000FDF7AAFD012001F047F910B1012001F0C4
:107D000053F9FCF735F810BD70477047704770475E
:107D100070477047704770477047704770477047AB
:107D2000704770477047704770477047704770479B
:107D3000704770477047704770477047704770478B
:107D40007047704770477047704710B50DF086FA5E
:107D500010BD1CB5FDF774FD044671480078401C49
:107D60006F4908702046FDF76FFD40F225516D48C0
:107D700001F06AFC00287DD06A4801F0E5FBC4B23E
:107D8000A52C07D168480078012803D00120664956
:107D9000087082E05A2C0AD16348007838B16248F2
:107DA0004078012803D001205F49487075E05E48A3
:107DB0000078A0B15C48407888B15C48007870B920
:107DC0005A48047000205A490870802C65DB5649D7
:107DD0000870487056490870544908705DE053486F
:107DE0000078002859DD50480078002855D04E48CA
:107DF0004078002851D04E4801780078401C4C4A09
:107E000010704C484454104600784849097888421C
:107E100043DB494849490978405C60BB05208DF83F
:107E2000000004208DF80100404800788DF804001F
:107E3000424801788DF8051000234FF6FF7269461D
:107E40003F48006802F008F814281DD03D493B4A1D
:107E5000127801EBC21035490A78364901F0EDFF7E
:107E6000324800783449354A1278885433480078CB
:107E7000401C01E012E008E0304908700846007834
:107E8000102801DB0020087000BF00202649087080
:107E90004870274908702549087000BF40F22551F5
:107EA000204801F0FBFBFBF763FF1CBD10B50BF096
:107EB00097FF10BD70477047704770477047704715
:107EC00070477047704770477047704770B500BF84
:107ED000FDF7B6FC054612480078401C10490870B2
:107EE0002846FDF7B1FC0821174801F097FB18B1AF
:107EF0001548001D0088C4B240F22551124801F017
:107F0000A3FB18B1104801F01FFBC4B2FBF730FF10
:107F100070BD704770477047704770477047704733
:107F20001C10002000440040A1100020A6100020DA
:107F3000A4100020D4920020B4920020A5100020AC
:107F400098100020B4820020004C004031490143C9
:107F5000314A1160704770B5002100230F22C478A8
:107F600004B32D4C246804F4E064C4F5E064210AF1
:107F7000C1F10403CA40447804FA03F18478144040
:107F800021430901254C0678A155047804F01F050A
:107F90000124AC4005786D11AD0005F1E025C5F870
:107FA000004109E0047804F01F050124AC401C4D99
:107FB0000678761145F8264070BD1A4A0A400243F9
:107FC000154B1B1F1A60704739B1134A121D1268F6
:107FD0000243114B1B1D1A6006E00F4A121D126866
:107FE00082430D4B1B1D1A607047042808D14FF0C7
:107FF000E021096941F004014FF0E022116107E03E
:108000004FF0E021096921F004014FF0E0221161F5
:10801000704700000000FA050CED00E000E400E00D
:1080200080E100E080FFFF1F10B5012000F0F2FEAC
:10803000002000F0EFFE10BD2A4908607047294972
:10804000091F08607047274984310860704701465E
:108050000020254A10884FF67F4210400843224AEC
:1080600010807047014600201F4A10884FF680722A
:10807000104008431C4A1080704708B50022009247
:10808000194A2C3A0092009A02440092009A116018
:1080900008BD08B501460020009013482C38009018
:1080A0000098084400900098008808BD0D489C3056
:1080B0000068C0B270470C480830008840F00100EA
:1080C00009490831088070470648A0300068C0B2EE
:1080D000704705480830008840F002000249083126
:1080E0000880704704860D422C6C00400146002039
:1080F000FE4A106800F03800084310607047FB49E2
:10810000096821F00801F94A116011460968014324
:1081100011607047F549096821F01001F34A1160B8
:1081200011460968014311607047F148EF49486002
:10813000F04848607047EE48EC494860ED484860B8
:108140007047EA48006940F08000E84908617047DC
:10815000E648006940F08000E44908617047042067
:10816000E249C96801F0010109B101200EE0DF49CF
:10817000C96801F0040109B1022007E0DB49C968C0
:1081800001F0100109B1032000E00420704700B5A0
:1081900002460423FFF7E3FF034603E0FFF7DFFF98
:1081A0000346521E012B01D1002AF7D102B9052343
:1081B000184600BD30B5044604254FF43020FFF7C3
:1081C000E6FF0546042D17D1C848006940F00200BB
:1081D000C649086108464461006940F040000861F2
:1081E0004FF43020FFF7D3FF0546C048006941F641
:1081F000FD710840BD490861284630BD10B5042412
:108200004FF43020FFF7C3FF0446042C16D1B748C3
:10821000006940F00400B54908610846006940F073
:10822000400008614FF43020FFF7B1FF0446AF482B
:10823000006941F6FB710840AC490861204610BD59
:1082400000B502460423FFF78AFF034603E0FFF769
:1082500086FF0346521E012B01D1002AF7D102B935
:108260000523184600BD10B504244FF43020FFF755
:10827000E7FF0446042C16D19C48006940F0040036
:108280009A4908610846006940F0400008614FF4CF
:108290003020FFF7D5FF04469448006941F6FB7192
:1082A000084092490861204610BD00208F49C969E5
:1082B00001F0020109B1012000E00020704730B553
:1082C000A5250424FFF7F1FF00B100254FF430206D
:1082D000FFF75DFF0446042C3AD185488349886046
